{"abi":[{"type":"function","name":"verifyProof","inputs":[{"name":"_pA","type":"uint256[2]","internalType":"uint256[2]"},{"name":"_pB","type":"uint256[2][2]","internalType":"uint256[2][2]"},{"name":"_pC","type":"uint256[2]","internalType":"uint256[2]"},{"name":"_pubSignals","type":"uint256[11]","internalType":"uint256[11]"}],"outputs":[{"name":"","type":"bool","internalType":"bool"}],"stateMutability":"view"}],"bytecode":{"object":"0x6080604052348015600e575f80fd5b506108ef8061001c5f395ff3fe608060405234801561000f575f80fd5b5060043610610029575f3560e01c8063b9c6ea871461002d575b5f80fd5b61004061003b366004610858565b610054565b604051901515815260200160405180910390f35b5f61078f565b7f30644e72e131a029b85045b68181585d2833e84879b9709143e1f593f00000018110610089575f805260205ff35b50565b5f60405183815284602082015285604082015260408160608360076107d05a03fa9150816100bc575f805260205ff35b825160408201526020830151606082015260408360808360066107d05a03fa915050806100eb575f805260205ff35b5050505050565b7f28ea3d58292bf355dcfd85153f78cd0e0a30a00944d6c351ac34f8fad7203a2f85527f10f90b427ad05dc2fd4a13ead787595f50def6e48f1d9cc8bd01a0316176cded60208601525f608086018661018e87357f2d4dbf9457b0348fe011136f388cdf816e4109c1b6be8246af5ed249eb8c2d907f0baeeb9bbee71dad7e65e2ff7350c8f40909155167a8516e4771304ca077c6a48461008c565b6101de60208801357f1f7388bbbfc91ecfa3e5abfbd1cb841dc5b3b64a3cac2ca0046be9ffad6bae2f7f1987d09f24609b18fdb6425fac60bbdea97ef6249a23fdb1553fa1c8610f5aca8461008c565b61022e60408801357f047a6c9b4af4a2171c3ef8df82f8203cf17a674c0fe91450a68b2781df753d747f071270282a5700c090dea14b32bc2f00685af3754e2f58268bc3e32b5f637c648461008c565b61027e60608801357f2c01bbacd011f0c1c7ab71e5b5706bfb61b8d5e8fba356d7845524ce8f2eb2d47f22d7fc819a55427e9df393a9b3db937f0ae018e86744fa642c028ca6998b33c68461008c565b6102ce60808801357f015039bc0c209736e36decbd55044a54799cacdb4e24e657c086d672d1afca5c7f09af4ae05fe5e0292929af9b5a30398a79566784a9af381a73535d50af0688dc8461008c565b61031e60a08801357f06fc05d1679a4a2a29373b8330d2a1bbf165ca4c4857c9f61e532c5359c440a17f0654d059b3e6c47aa81eb23b65233eb6e889420eef0233641f26fe68baf136098461008c565b61036e60c08801357f2f8fd1f8a0debdc705e5b8749bb7b6512a3b272d411f8b6ade5b9802294a33b97f2988751c9ca68cf34e500649e041cb395850292cbb44e0a2adb471b8c70433258461008c565b6103be60e08801357f2078041064a16d6abe8528d6f87d45126a109993476434f727ea69c83addda187f0983d93823ac9912fbdd32a45c7312e6ad3b24ad66bbaed12b9bfc20f39ec6ad8461008c565b61040f6101008801357f283edb61d6575ac46820cad33939d0a0a4901cbb979dbfe953d0a09b9a6c13057f22967b57a2f59fa1486f4fe6d9cf3f4b6ea6cce6b0021af455f12782d8d039c98461008c565b6104606101208801357f1990f8e9e8312b4054077dc89c98a206382fee6786227f3363f3e497e1b5eda17f1d440ea84bc7ff8625a26aca44fc47a08298f1066dd35f90569b3ce03ae6501b8461008c565b6104b16101408801357f193773c1c39ae1613ce6f101010a82478fc551bc34ae1c4ae4d6bd5c15b2bb1a7f0b80f03b91853bfd6996f1469ae2bacc3cdb0ac46ebd0acc1baa7a557e2835588461008c565b50823581527f30644e72e131a029b85045b68181585d97816a916871ca8d3c208c16d87cfd4760208401357f30644e72e131a029b85045b68181585d97816a916871ca8d3c208c16d87cfd4703066020820152833560408201526020840135606082015260408401356080820152606084013560a08201527f2d4d9aa7e302d9df41749d5507949d05dbea33fbb16c643b22f599a2be6df2e260c08201527f14bedd503c37ceb061d8ec60209fe345ce89830a19230301f076caff004d192660e08201527f0967032fcbf776d1afc985f88877f182d38480a653f2decaa9794cbc3bf3060c6101008201527f0e187847ad4c798374d0d6732bf501847dd68bc0e071241e0213bc7fc13db7ab6101208201527f304cfbd1e08a704a99f5e847d93f8c3caafddec46b7a0d379da69a4d112346a76101408201527f1739c1b1a457a8c7313123d24d2f9192f896b7c63eea05a9d57f06547ad0cec86101608201525f87015161018082015260205f018701516101a08201527f198e9393920d483a7260bfb731fb5d25f1aa493335a9e71297e485b7aef312c26101c08201527f1800deef121f1e76426a00665e5c4479674322d4f75edadd46debd5cd992f6ed6101e08201527f090689d0585ff075ec9e99ad690c3395bc4b313370b38ef355acdadcd122975b6102008201527f12c85ea5db8c6deb4aab71808dcb408fe3d1e7690c43d37b4ce6cc0166fa7daa610220820152843561024082015260208501356102608201527f2f75546cb7e52fa6ea978be728c05d63875126084444c60c097963c49aaea7336102808201527f0dc19d1d32ef6ed5ac49ab49cf6a65c091753df806a62933ad93f15f61e1a2d06102a08201527f0a9852fc4b4db0462843c63d90d4ada2f11ca7b61004ad3391c45959cdb29f096102c08201527f23176728fe9e1090354dc158c61b076b5558bac563589e34fdb7ef7965637a1a6102e08201526020816103008360086107d05a03fa9051169695505050505050565b60405161038081016040526107a65f84013561005a565b6107b3602084013561005a565b6107c0604084013561005a565b6107cd606084013561005a565b6107da608084013561005a565b6107e760a084013561005a565b6107f460c084013561005a565b61080160e084013561005a565b61080f61010084013561005a565b61081d61012084013561005a565b61082b61014084013561005a565b610838818486888a6100f2565b9050805f5260205ff35b8060408101831015610852575f80fd5b92915050565b5f805f8061026080868803121561086d575f80fd5b6108778787610842565b945060c0860187811115610889575f80fd5b6040870194506108998882610842565b9350508681870111156108aa575f80fd5b5092959194509261010001915056fea26469706673582212205b536fd71728fde57d1ae3532be0e2c6d3348087ccd17ff968b4b856e5343bd964736f6c63430008190033","linkReferences":{}},"methodIdentifiers":{"verifyProof(uint256[2],uint256[2][2],uint256[2],uint256[11])":"b9c6ea87"},"id":18}